{
    "contractName": "SimpleBank",
    "abi": [
        {
            "inputs": [],
            "name": "balance",
            "outputs": [
                {
                    "internalType": "uint256",
                    "name": "",
                    "type": "uint256"
                }
            ],
            "stateMutability": "view",
            "type": "function"
        },
        {
            "inputs": [],
            "name": "deposit",
            "outputs": [],
            "stateMutability": "payable",
            "type": "function"
        },
        {
            "inputs": [
                {
                    "internalType": "uint256",
                    "name": "amount",
                    "type": "uint256"
                }
            ],
            "name": "withdraw",
            "outputs": [],
            "stateMutability": "nonpayable",
            "type": "function"
        }
    ],
    "bytecode": "608060405234801561001057600080fd5b506101f8806100206000396000f3fe6080604052600436106100345760003560e01c80632e1a7d4d14610039578063b69ef8a81461005b578063d0e30db01461008a575b600080fd5b34801561004557600080fd5b50610059610054366004610167565b610092565b005b34801561006757600080fd5b503360009081526020819052604090205460405190815260200160405180910390f35b610059610141565b336000908152602081905260409020548111156100ec5760405162461bcd60e51b8152602060048201526014602482015273496e73756666696369656e742042616c616e636560601b604482015260640160405180910390fd5b604051339082156108fc029083906000818181858888f19350505050158015610119573d6000803e3d6000fd5b503360009081526020819052604081208054839290610139908490610196565b909155505050565b33600090815260208190526040812080543492906101609084906101af565b9091555050565b60006020828403121561017957600080fd5b5035919050565b634e487b7160e01b600052601160045260246000fd5b818103818111156101a9576101a9610180565b92915050565b808201808211156101a9576101a961018056fea2646970667358221220d195d28e33b4ed77bd35077fd4fad18301fb22d2989c15fd35d35ea348cccca864736f6c63430008130033",
    "sourcePath": "/home/ajith/Documents/NOTES/BC/Programs/bank.sol",
    "compiler": {
        "name": "solc",
        "version": "0.8.19+commit.7dd6d404"
    },
    "functionHashes": {
        "balance()": "b69ef8a8",
        "deposit()": "d0e30db0",
        "withdraw(uint256)": "2e1a7d4d"
    },
    "gasEstimates": {
        "creation": {
            "codeDepositCost": "100800",
            "executionCost": "147",
            "totalCost": "100947"
        },
        "external": {
            "balance()": "2339",
            "deposit()": "24515",
            "withdraw(uint256)": "infinite"
        }
    }
}